HEADER02            55555IIN01IN99020202408122024081220240812P&CN                                                                                                                                                                                                                                                                                                                                                                                                                                                                                                                                                                                                                                                                                                                                                                                                                                                                                                                                                                                                                                                                                                                                                                                                 
I55555IN011                                                                                                                                                                                                                                                                                                                                                                      2010010100000000                                                                                                                                                                    111111              20090622Joe Blow                                                    00001Blow                          Joe                           \Images\test\                                                                                                                                                                                                                                                   1.txt                                                                                                                                                                                                                                                           txt 
I55555IN012                                                                                                                                                                                                                                                                                                                                                                      2010010100000000                                                                                                                                                                    111111              20090622Joe Blow                                                    00001Blow                          Joe                           \Images\test\                                                                                                                                                                                                                                                   2.txt                                                                                                                                                                                                                                                           txt 
I55555IN013                                                                                                                                                                                                                                                                                                                                                                      2010010100000000                                                                                                                                                                    111111              20090622Joe Blow                                                    00001Blow                          Joe                           \Images\test\                                                                                                                                                                                                                                                   3.txt                                                                                                                                                                                                                                                           txt 
I55555IN014                                                                                                                                                                                                                                                                                                                                                                      2010010100000000                                                                                                                                                                    111111              20090622Joe Blow                                                    00001Blow                          Joe                           \Images\test\                                                                                                                                                                                                                                                   4.txt                                                                                                                                                                                                                                                           txt 
I55555IN015                                                                                                                                                                                                                                                                                                                                                                      2010010100000000                                                                                                                                                                    111111              20090622Joe Blow                                                    00001Blow                          Joe                           \Images\test\                                                                                                                                                                                                                                                   5.txt                                                                                                                                                                                                                                                           txt 
I55555IN016                                                                                                                                                                                                                                                                                                                                                                      2010010100000000                                                                                                                                                                    111111              20090622Joe Blow                                                    00001Blow                          Joe                           \Images\test\                                                                                                                                                                                                                                                   6.txt                                                                                                                                                                                                                                                           txt 
I55555IN017                                                                                                                                                                                                                                                                                                                                                                      2010010100000000                                                                                                                                                                    111111              20090622Joe Blow                                                    00001Blow                          Joe                           \Images\test\                                                                                                                                                                                                                                                   7.txt                                                                                                                                                                                                                                                           txt 
I55555IN018                                                                                                                                                                                                                                                                                                                                                                      2010010100000000                                                                                                                                                                    111111              20090622Joe Blow                                                    00001Blow                          Joe                           \Images\test\                                                                                                                                                                                                                                                   8.txt                                                                                                                                                                                                                                                           txt 
I55555IN019                                                                                                                                                                                                                                                                                                                                                                      2010010100000000                                                                                                                                                                    111111              20090622Joe Blow                                                    00001Blow                          Joe                           \Images\test\                                                                                                                                                                                                                                                   9.txt                                                                                                                                                                                                                                                           txt 
I55555IN0110                                                                                                                                                                                                                                                                                                                                                                     2010010100000000                                                                                                                                                                    111111              20090622Joe Blow                                                    00001Blow                          Joe                           \Images\test\                                                                                                                                                                                                                                                   10.txt                                                                                                                                                                                                                                                          txt 
I55555IN0111                                                                                                                                                                                                                                                                                                                                                                     2010010100000000                                                                                                                                                                    111111              20090622Joe Blow                                                    00001Blow                          Joe                           \Images\test\                                                                                                                                                                                                                                                   11.txt                                                                                                                                                                                                                                                          txt 
I55555IN0112                                                                                                                                                                                                                                                                                                                                                                     2010010100000000                                                                                                                                                                    111111              20090622Joe Blow                                                    00001Blow                          Joe                           \Images\test\                                                                                                                                                                                                                                                   12.txt                                                                                                                                                                                                                                                          txt 
I55555IN0113                                                                                                                                                                                                                                                                                                                                                                     2010010100000000                                                                                                                                                                    111111              20090622Joe Blow                                                    00001Blow                          Joe                           \Images\test\                                                                                                                                                                                                                                                   13.txt                                                                                                                                                                                                                                                          txt 
I55555IN0114                                                                                                                                                                                                                                                                                                                                                                     2010010100000000                                                                                                                                                                    111111              20090622Joe Blow                                                    00001Blow                          Joe                           \Images\test\                                                                                                                                                                                                                                                   14.txt                                                                                                                                                                                                                                                          txt 
I55555IN0115                                                                                                                                                                                                                                                                                                                                                                     2010010100000000                                                                                                                                                                    111111              20090622Joe Blow                                                    00001Blow                          Joe                           \Images\test\                                                                                                                                                                                                                                                   15.txt                                                                                                                                                                                                                                                          txt 
I55555IN0116                                                                                                                                                                                                                                                                                                                                                                     2010010100000000                                                                                                                                                                    111111              20090622Joe Blow                                                    00001Blow                          Joe                           \Images\test\                                                                                                                                                                                                                                                   16.txt                                                                                                                                                                                                                                                          txt 
I55555IN0117                                                                                                                                                                                                                                                                                                                                                                     2010010100000000                                                                                                                                                                    111111              20090622Joe Blow                                                    00001Blow                          Joe                           \Images\test\                                                                                                                                                                                                                                                   17.txt                                                                                                                                                                                                                                                          txt 
I55555IN0118                                                                                                                                                                                                                                                                                                                                                                     2010010100000000                                                                                                                                                                    111111              20090622Joe Blow                                                    00001Blow                          Joe                           \Images\test\                                                                                                                                                                                                                                                   18.txt                                                                                                                                                                                                                                                          txt 
I55555IN0119                                                                                                                                                                                                                                                                                                                                                                     2010010100000000                                                                                                                                                                    111111              20090622Joe Blow                                                    00001Blow                          Joe                           \Images\test\                                                                                                                                                                                                                                                   19.txt                                                                                                                                                                                                                                                          txt 
I55555IN0120                                                                                                                                                                                                                                                                                                                                                                     2010010100000000                                                                                                                                                                    111111              20090622Joe Blow                                                    00001Blow                          Joe                           \Images\test\                                                                                                                                                                                                                                                   20.txt                                                                                                                                                                                                                                                          txt 
I55555IN0121                                                                                                                                                                                                                                                                                                                                                                     2010010100000000                                                                                                                                                                    111111              20090622Joe Blow                                                    00001Blow                          Joe                           \Images\test\                                                                                                                                                                                                                                                   21.txt                                                                                                                                                                                                                                                          txt 
I55555IN0122                                                                                                                                                                                                                                                                                                                                                                     2010010100000000                                                                                                                                                                    111111              20090622Joe Blow                                                    00001Blow                          Joe                           \Images\test\                                                                                                                                                                                                                                                   22.txt                                                                                                                                                                                                                                                          txt 
I55555IN0123                                                                                                                                                                                                                                                                                                                                                                     2010010100000000                                                                                                                                                                    111111              20090622Joe Blow                                                    00001Blow                          Joe                           \Images\test\                                                                                                                                                                                                                                                   23.txt                                                                                                                                                                                                                                                          txt 
I55555IN0124                                                                                                                                                                                                                                                                                                                                                                     2010010100000000                                                                                                                                                                    111111              20090622Joe Blow                                                    00001Blow                          Joe                           \Images\test\                                                                                                                                                                                                                                                   24.txt                                                                                                                                                                                                                                                          txt 
I55555IN0125                                                                                                                                                                                                                                                                                                                                                                     2010010100000000                                                                                                                                                                    111111              20090622Joe Blow                                                    00001Blow                          Joe                           \Images\test\                                                                                                                                                                                                                                                   25.txt                                                                                                                                                                                                                                                          txt 
I55555IN0126                                                                                                                                                                                                                                                                                                                                                                     2010010100000000                                                                                                                                                                    111111              20090622Joe Blow                                                    00001Blow                          Joe                           \Images\test\                                                                                                                                                                                                                                                   26.txt                                                                                                                                                                                                                                                          txt 
I55555IN0127                                                                                                                                                                                                                                                                                                                                                                     2010010100000000                                                                                                                                                                    111111              20090622Joe Blow                                                    00001Blow                          Joe                           \Images\test\                                                                                                                                                                                                                                                   27.txt                                                                                                                                                                                                                                                          txt 
I55555IN0128                                                                                                                                                                                                                                                                                                                                                                     2010010100000000                                                                                                                                                                    111111              20090622Joe Blow                                                    00001Blow                          Joe                           \Images\test\                                                                                                                                                                                                                                                   28.txt                                                                                                                                                                                                                                                          txt 
I55555IN0129                                                                                                                                                                                                                                                                                                                                                                     2010010100000000                                                                                                                                                                    111111              20090622Joe Blow                                                    00001Blow                          Joe                           \Images\test\                                                                                                                                                                                                                                                   29.txt                                                                                                                                                                                                                                                          txt 
I55555IN0130                                                                                                                                                                                                                                                                                                                                                                     2010010100000000                                                                                                                                                                    111111              20090622Joe Blow                                                    00001Blow                          Joe                           \Images\test\                                                                                                                                                                                                                                                   30.txt                                                                                                                                                                                                                                                          txt 
I55555IN0131                                                                                                                                                                                                                                                                                                                                                                     2010010100000000                                                                                                                                                                    111111              20090622Joe Blow                                                    00001Blow                          Joe                           \Images\test\                                                                                                                                                                                                                                                   31.txt                                                                                                                                                                                                                                                          txt 
I55555IN0132                                                                                                                                                                                                                                                                                                                                                                     2010010100000000                                                                                                                                                                    111111              20090622Joe Blow                                                    00001Blow                          Joe                           \Images\test\                                                                                                                                                                                                                                                   32.txt                                                                                                                                                                                                                                                          txt 
I55555IN0133                                                                                                                                                                                                                                                                                                                                                                     2010010100000000                                                                                                                                                                    111111              20090622Joe Blow                                                    00001Blow                          Joe                           \Images\test\                                                                                                                                                                                                                                                   33.txt                                                                                                                                                                                                                                                          txt 
I55555IN0134                                                                                                                                                                                                                                                                                                                                                                     2010010100000000                                                                                                                                                                    111111              20090622Joe Blow                                                    00001Blow                          Joe                           \Images\test\                                                                                                                                                                                                                                                   34.txt                                                                                                                                                                                                                                                          txt 
I55555IN0135                                                                                                                                                                                                                                                                                                                                                                     2010010100000000                                                                                                                                                                    111111              20090622Joe Blow                                                    00001Blow                          Joe                           \Images\test\                                                                                                                                                                                                                                                   35.txt                                                                                                                                                                                                                                                          txt 
I55555IN0136                                                                                                                                                                                                                                                                                                                                                                     2010010100000000                                                                                                                                                                    111111              20090622Joe Blow                                                    00001Blow                          Joe                           \Images\test\                                                                                                                                                                                                                                                   36.txt                                                                                                                                                                                                                                                          txt 
I55555IN0137                                                                                                                                                                                                                                                                                                                                                                     2010010100000000                                                                                                                                                                    111111              20090622Joe Blow                                                    00001Blow                          Joe                           \Images\test\                                                                                                                                                                                                                                                   37.txt                                                                                                                                                                                                                                                          txt 
I55555IN0138                                                                                                                                                                                                                                                                                                                                                                     2010010100000000                                                                                                                                                                    111111              20090622Joe Blow                                                    00001Blow                          Joe                           \Images\test\                                                                                                                                                                                                                                                   38.txt                                                                                                                                                                                                                                                          txt 
I55555IN0139                                                                                                                                                                                                                                                                                                                                                                     2010010100000000                                                                                                                                                                    111111              20090622Joe Blow                                                    00001Blow                          Joe                           \Images\test\                                                                                                                                                                                                                                                   39.txt                                                                                                                                                                                                                                                          txt 
I55555IN0140                                                                                                                                                                                                                                                                                                                                                                     2010010100000000                                                                                                                                                                    111111              20090622Joe Blow                                                    00001Blow                          Joe                           \Images\test\                                                                                                                                                                                                                                                   40.txt                                                                                                                                                                                                                                                          txt 
I55555IN0141                                                                                                                                                                                                                                                                                                                                                                     2010010100000000                                                                                                                                                                    111111              20090622Joe Blow                                                    00001Blow                          Joe                           \Images\test\                                                                                                                                                                                                                                                   41.txt                                                                                                                                                                                                                                                          txt 
I55555IN0142                                                                                                                                                                                                                                                                                                                                                                     2010010100000000                                                                                                                                                                    111111              20090622Joe Blow                                                    00001Blow                          Joe                           \Images\test\                                                                                                                                                                                                                                                   42.txt                                                                                                                                                                                                                                                          txt 
I55555IN0143                                                                                                                                                                                                                                                                                                                                                                     2010010100000000                                                                                                                                                                    111111              20090622Joe Blow                                                    00001Blow                          Joe                           \Images\test\                                                                                                                                                                                                                                                   43.txt                                                                                                                                                                                                                                                          txt 
I55555IN0144                                                                                                                                                                                                                                                                                                                                                                     2010010100000000                                                                                                                                                                    111111              20090622Joe Blow                                                    00001Blow                          Joe                           \Images\test\                                                                                                                                                                                                                                                   44.txt                                                                                                                                                                                                                                                          txt 
I55555IN0145                                                                                                                                                                                                                                                                                                                                                                     2010010100000000                                                                                                                                                                    111111              20090622Joe Blow                                                    00001Blow                          Joe                           \Images\test\                                                                                                                                                                                                                                                   45.txt                                                                                                                                                                                                                                                          txt 
I55555IN0146                                                                                                                                                                                                                                                                                                                                                                     2010010100000000                                                                                                                                                                    111111              20090622Joe Blow                                                    00001Blow                          Joe                           \Images\test\                                                                                                                                                                                                                                                   46.txt                                                                                                                                                                                                                                                          txt 
I55555IN0147                                                                                                                                                                                                                                                                                                                                                                     2010010100000000                                                                                                                                                                    111111              20090622Joe Blow                                                    00001Blow                          Joe                           \Images\test\                                                                                                                                                                                                                                                   47.txt                                                                                                                                                                                                                                                          txt 
I55555IN0148                                                                                                                                                                                                                                                                                                                                                                     2010010100000000                                                                                                                                                                    111111              20090622Joe Blow                                                    00001Blow                          Joe                           \Images\test\                                                                                                                                                                                                                                                   48.txt                                                                                                                                                                                                                                                          txt 
I55555IN0149                                                                                                                                                                                                                                                                                                                                                                     2010010100000000                                                                                                                                                                    111111              20090622Joe Blow                                                    00001Blow                          Joe                           \Images\test\                                                                                                                                                                                                                                                   49.txt                                                                                                                                                                                                                                                          txt 
I55555IN0150                                                                                                                                                                                                                                                                                                                                                                     2010010100000000                                                                                                                                                                    111111              20090622Joe Blow                                                    00001Blow                          Joe                           \Images\test\                                                                                                                                                                                                                                                   50.txt                                                                                                                                                                                                                                                          txt 
I55555IN0151                                                                                                                                                                                                                                                                                                                                                                     2010010100000000                                                                                                                                                                    111111              20090622Joe Blow                                                    00001Blow                          Joe                           \Images\test\                                                                                                                                                                                                                                                   51.txt                                                                                                                                                                                                                                                          txt 
I55555IN0152                                                                                                                                                                                                                                                                                                                                                                     2010010100000000                                                                                                                                                                    111111              20090622Joe Blow                                                    00001Blow                          Joe                           \Images\test\                                                                                                                                                                                                                                                   52.txt                                                                                                                                                                                                                                                          txt 
I55555IN0153                                                                                                                                                                                                                                                                                                                                                                     2010010100000000                                                                                                                                                                    111111              20090622Joe Blow                                                    00001Blow                          Joe                           \Images\test\                                                                                                                                                                                                                                                   53.txt                                                                                                                                                                                                                                                          txt 
I55555IN0154                                                                                                                                                                                                                                                                                                                                                                     2010010100000000                                                                                                                                                                    111111              20090622Joe Blow                                                    00001Blow                          Joe                           \Images\test\                                                                                                                                                                                                                                                   54.txt                                                                                                                                                                                                                                                          txt 
I55555IN0155                                                                                                                                                                                                                                                                                                                                                                     2010010100000000                                                                                                                                                                    111111              20090622Joe Blow                                                    00001Blow                          Joe                           \Images\test\                                                                                                                                                                                                                                                   55.txt                                                                                                                                                                                                                                                          txt 
I55555IN0156                                                                                                                                                                                                                                                                                                                                                                     2010010100000000                                                                                                                                                                    111111              20090622Joe Blow                                                    00001Blow                          Joe                           \Images\test\                                                                                                                                                                                                                                                   56.txt                                                                                                                                                                                                                                                          txt 
I55555IN0157                                                                                                                                                                                                                                                                                                                                                                     2010010100000000                                                                                                                                                                    111111              20090622Joe Blow                                                    00001Blow                          Joe                           \Images\test\                                                                                                                                                                                                                                                   57.txt                                                                                                                                                                                                                                                          txt 
I55555IN0158                                                                                                                                                                                                                                                                                                                                                                     2010010100000000                                                                                                                                                                    111111              20090622Joe Blow                                                    00001Blow                          Joe                           \Images\test\                                                                                                                                                                                                                                                   58.txt                                                                                                                                                                                                                                                          txt 
I55555IN0159                                                                                                                                                                                                                                                                                                                                                                     2010010100000000                                                                                                                                                                    111111              20090622Joe Blow                                                    00001Blow                          Joe                           \Images\test\                                                                                                                                                                                                                                                   59.txt                                                                                                                                                                                                                                                          txt 
I55555IN0160                                                                                                                                                                                                                                                                                                                                                                     2010010100000000                                                                                                                                                                    111111              20090622Joe Blow                                                    00001Blow                          Joe                           \Images\test\                                                                                                                                                                                                                                                   60.txt                                                                                                                                                                                                                                                          txt 
I55555IN0161                                                                                                                                                                                                                                                                                                                                                                     2010010100000000                                                                                                                                                                    111111              20090622Joe Blow                                                    00001Blow                          Joe                           \Images\test\                                                                                                                                                                                                                                                   61.txt                                                                                                                                                                                                                                                          txt 
I55555IN0162                                                                                                                                                                                                                                                                                                                                                                     2010010100000000                                                                                                                                                                    111111              20090622Joe Blow                                                    00001Blow                          Joe                           \Images\test\                                                                                                                                                                                                                                                   62.txt                                                                                                                                                                                                                                                          txt 
I55555IN0163                                                                                                                                                                                                                                                                                                                                                                     2010010100000000                                                                                                                                                                    111111              20090622Joe Blow                                                    00001Blow                          Joe                           \Images\test\                                                                                                                                                                                                                                                   63.txt                                                                                                                                                                                                                                                          txt 
I55555IN0164                                                                                                                                                                                                                                                                                                                                                                     2010010100000000                                                                                                                                                                    111111              20090622Joe Blow                                                    00001Blow                          Joe                           \Images\test\                                                                                                                                                                                                                                                   64.txt                                                                                                                                                                                                                                                          txt 
I55555IN0165                                                                                                                                                                                                                                                                                                                                                                     2010010100000000                                                                                                                                                                    111111              20090622Joe Blow                                                    00001Blow                          Joe                           \Images\test\                                                                                                                                                                                                                                                   65.txt                                                                                                                                                                                                                                                          txt 
I55555IN0166                                                                                                                                                                                                                                                                                                                                                                     2010010100000000                                                                                                                                                                    111111              20090622Joe Blow                                                    00001Blow                          Joe                           \Images\test\                                                                                                                                                                                                                                                   66.txt                                                                                                                                                                                                                                                          txt 
I55555IN0167                                                                                                                                                                                                                                                                                                                                                                     2010010100000000                                                                                                                                                                    111111              20090622Joe Blow                                                    00001Blow                          Joe                           \Images\test\                                                                                                                                                                                                                                                   67.txt                                                                                                                                                                                                                                                          txt 
I55555IN0168                                                                                                                                                                                                                                                                                                                                                                     2010010100000000                                                                                                                                                                    111111              20090622Joe Blow                                                    00001Blow                          Joe                           \Images\test\                                                                                                                                                                                                                                                   68.txt                                                                                                                                                                                                                                                          txt 
I55555IN0169                                                                                                                                                                                                                                                                                                                                                                     2010010100000000                                                                                                                                                                    111111              20090622Joe Blow                                                    00001Blow                          Joe                           \Images\test\                                                                                                                                                                                                                                                   69.txt                                                                                                                                                                                                                                                          txt 
I55555IN0170                                                                                                                                                                                                                                                                                                                                                                     2010010100000000                                                                                                                                                                    111111              20090622Joe Blow                                                    00001Blow                          Joe                           \Images\test\                                                                                                                                                                                                                                                   70.txt                                                                                                                                                                                                                                                          txt 
I55555IN0171                                                                                                                                                                                                                                                                                                                                                                     2010010100000000                                                                                                                                                                    111111              20090622Joe Blow                                                    00001Blow                          Joe                           \Images\test\                                                                                                                                                                                                                                                   71.txt                                                                                                                                                                                                                                                          txt 
I55555IN0172                                                                                                                                                                                                                                                                                                                                                                     2010010100000000                                                                                                                                                                    111111              20090622Joe Blow                                                    00001Blow                          Joe                           \Images\test\                                                                                                                                                                                                                                                   72.txt                                                                                                                                                                                                                                                          txt 
I55555IN0173                                                                                                                                                                                                                                                                                                                                                                     2010010100000000                                                                                                                                                                    111111              20090622Joe Blow                                                    00001Blow                          Joe                           \Images\test\                                                                                                                                                                                                                                                   73.txt                                                                                                                                                                                                                                                          txt 
I55555IN0174                                                                                                                                                                                                                                                                                                                                                                     2010010100000000                                                                                                                                                                    111111              20090622Joe Blow                                                    00001Blow                          Joe                           \Images\test\                                                                                                                                                                                                                                                   74.txt                                                                                                                                                                                                                                                          txt 
I55555IN0175                                                                                                                                                                                                                                                                                                                                                                     2010010100000000                                                                                                                                                                    111111              20090622Joe Blow                                                    00001Blow                          Joe                           \Images\test\                                                                                                                                                                                                                                                   75.txt                                                                                                                                                                                                                                                          txt 
I55555IN0176                                                                                                                                                                                                                                                                                                                                                                     2010010100000000                                                                                                                                                                    111111              20090622Joe Blow                                                    00001Blow                          Joe                           \Images\test\                                                                                                                                                                                                                                                   76.txt                                                                                                                                                                                                                                                          txt 
I55555IN0177                                                                                                                                                                                                                                                                                                                                                                     2010010100000000                                                                                                                                                                    111111              20090622Joe Blow                                                    00001Blow                          Joe                           \Images\test\                                                                                                                                                                                                                                                   77.txt                                                                                                                                                                                                                                                          txt 
I55555IN0178                                                                                                                                                                                                                                                                                                                                                                     2010010100000000                                                                                                                                                                    111111              20090622Joe Blow                                                    00001Blow                          Joe                           \Images\test\                                                                                                                                                                                                                                                   78.txt                                                                                                                                                                                                                                                          txt 
I55555IN0179                                                                                                                                                                                                                                                                                                                                                                     2010010100000000                                                                                                                                                                    111111              20090622Joe Blow                                                    00001Blow                          Joe                           \Images\test\                                                                                                                                                                                                                                                   79.txt                                                                                                                                                                                                                                                          txt 
I55555IN0180                                                                                                                                                                                                                                                                                                                                                                     2010010100000000                                                                                                                                                                    111111              20090622Joe Blow                                                    00001Blow                          Joe                           \Images\test\                                                                                                                                                                                                                                                   80.txt                                                                                                                                                                                                                                                          txt 
