HEADER02            55555IIN01IN99001202408052024080520240805P&CN                                                                                                                                                                                                                                                                                                                                                                                                                                                                                                                                                                                                                                                                                                                                                                                                                                                                                                                                                                                                                                                                                                                                                                                                 
I55555IN011234567                                                                                                                                                                                                                                                                                                                                                                2010010100000000                                                                                                                                                                    333333              20090622Ralph Steadman                                              00001Steadman                      Ralph                         \Images\test\                                                                                                                                                                                                                                                   one.txt                                                                                                                                                                                                                                                         txt 
I55555IN011234568                                                                                                                                                                                                                                                                                                                                                                2010010100000000                                                                                                                                                                    333333              20090622Ralph Steadman                                              00001Steadman                      Ralph                         \Images\test\                                                                                                                                                                                                                                                   two.txt                                                                                                                                                                                                                                                         txt 
TRAILER             55555IIN01IN99001202408052024080520240805P&C000000002000000000000000                                                                                                                                                                                                                                                                                                                                                                                                                                                                                                                                                                                                                                                                                                                                                                                                                                                                                                                                                                                                                                                                                                                                                                          
